{
  "_format": "hh-sol-artifact-1",
  "contractName": "MusicPlatform",
  "sourceName": "contracts/MusicPlatform.sol",
  "abi": [
    {
      "inputs": [],
      "stateMutability": "nonpayable",
      "type": "constructor"
    },
    {
      "inputs": [
        {
          "internalType": "address",
          "name": "sender",
          "type": "address"
        },
        {
          "internalType": "uint256",
          "name": "tokenId",
          "type": "uint256"
        },
        {
          "internalType": "address",
          "name": "owner",
          "type": "address"
        }
      ],
      "name": "ERC721IncorrectOwner",
      "type": "error"
    },
    {
      "inputs": [
        {
          "internalType": "address",
          "name": "operator",
          "type": "address"
        },
        {
          "internalType": "uint256",
          "name": "tokenId",
          "type": "uint256"
        }
      ],
      "name": "ERC721InsufficientApproval",
      "type": "error"
    },
    {
      "inputs": [
        {
          "internalType": "address",
          "name": "approver",
          "type": "address"
        }
      ],
      "name": "ERC721InvalidApprover",
      "type": "error"
    },
    {
      "inputs": [
        {
          "internalType": "address",
          "name": "operator",
          "type": "address"
        }
      ],
      "name": "ERC721InvalidOperator",
      "type": "error"
    },
    {
      "inputs": [
        {
          "internalType": "address",
          "name": "owner",
          "type": "address"
        }
      ],
      "name": "ERC721InvalidOwner",
      "type": "error"
    },
    {
      "inputs": [
        {
          "internalType": "address",
          "name": "receiver",
          "type": "address"
        }
      ],
      "name": "ERC721InvalidReceiver",
      "type": "error"
    },
    {
      "inputs": [
        {
          "internalType": "address",
          "name": "sender",
          "type": "address"
        }
      ],
      "name": "ERC721InvalidSender",
      "type": "error"
    },
    {
      "inputs": [
        {
          "internalType": "uint256",
          "name": "tokenId",
          "type": "uint256"
        }
      ],
      "name": "ERC721NonexistentToken",
      "type": "error"
    },
    {
      "inputs": [
        {
          "internalType": "address",
          "name": "owner",
          "type": "address"
        }
      ],
      "name": "OwnableInvalidOwner",
      "type": "error"
    },
    {
      "inputs": [
        {
          "internalType": "address",
          "name": "account",
          "type": "address"
        }
      ],
      "name": "OwnableUnauthorizedAccount",
      "type": "error"
    },
    {
      "anonymous": false,
      "inputs": [
        {
          "indexed": true,
          "internalType": "address",
          "name": "owner",
          "type": "address"
        },
        {
          "indexed": true,
          "internalType": "address",
          "name": "approved",
          "type": "address"
        },
        {
          "indexed": true,
          "internalType": "uint256",
          "name": "tokenId",
          "type": "uint256"
        }
      ],
      "name": "Approval",
      "type": "event"
    },
    {
      "anonymous": false,
      "inputs": [
        {
          "indexed": true,
          "internalType": "address",
          "name": "owner",
          "type": "address"
        },
        {
          "indexed": true,
          "internalType": "address",
          "name": "operator",
          "type": "address"
        },
        {
          "indexed": false,
          "internalType": "bool",
          "name": "approved",
          "type": "bool"
        }
      ],
      "name": "ApprovalForAll",
      "type": "event"
    },
    {
      "anonymous": false,
      "inputs": [
        {
          "indexed": true,
          "internalType": "address",
          "name": "previousOwner",
          "type": "address"
        },
        {
          "indexed": true,
          "internalType": "address",
          "name": "newOwner",
          "type": "address"
        }
      ],
      "name": "OwnershipTransferred",
      "type": "event"
    },
    {
      "anonymous": false,
      "inputs": [
        {
          "indexed": false,
          "internalType": "uint256",
          "name": "tokenId",
          "type": "uint256"
        },
        {
          "indexed": false,
          "internalType": "string",
          "name": "title",
          "type": "string"
        },
        {
          "indexed": false,
          "internalType": "address",
          "name": "artist",
          "type": "address"
        },
        {
          "indexed": false,
          "internalType": "uint256",
          "name": "price",
          "type": "uint256"
        }
      ],
      "name": "SongUploaded",
      "type": "event"
    },
    {
      "anonymous": false,
      "inputs": [
        {
          "indexed": false,
          "internalType": "uint256",
          "name": "tokenId",
          "type": "uint256"
        },
        {
          "indexed": false,
          "internalType": "address",
          "name": "listener",
          "type": "address"
        },
        {
          "indexed": false,
          "internalType": "address",
          "name": "artist",
          "type": "address"
        },
        {
          "indexed": false,
          "internalType": "uint256",
          "name": "amount",
          "type": "uint256"
        }
      ],
      "name": "StreamingPayment",
      "type": "event"
    },
    {
      "anonymous": false,
      "inputs": [
        {
          "indexed": true,
          "internalType": "address",
          "name": "from",
          "type": "address"
        },
        {
          "indexed": true,
          "internalType": "address",
          "name": "to",
          "type": "address"
        },
        {
          "indexed": true,
          "internalType": "uint256",
          "name": "tokenId",
          "type": "uint256"
        }
      ],
      "name": "Transfer",
      "type": "event"
    },
    {
      "inputs": [
        {
          "internalType": "address",
          "name": "to",
          "type": "address"
        },
        {
          "internalType": "uint256",
          "name": "tokenId",
          "type": "uint256"
        }
      ],
      "name": "approve",
      "outputs": [],
      "stateMutability": "nonpayable",
      "type": "function"
    },
    {
      "inputs": [
        {
          "internalType": "address",
          "name": "",
          "type": "address"
        }
      ],
      "name": "artistBalance",
      "outputs": [
        {
          "internalType": "uint256",
          "name": "",
          "type": "uint256"
        }
      ],
      "stateMutability": "view",
      "type": "function"
    },
    {
      "inputs": [
        {
          "internalType": "address",
          "name": "owner",
          "type": "address"
        }
      ],
      "name": "balanceOf",
      "outputs": [
        {
          "internalType": "uint256",
          "name": "",
          "type": "uint256"
        }
      ],
      "stateMutability": "view",
      "type": "function"
    },
    {
      "inputs": [
        {
          "internalType": "uint256",
          "name": "tokenId",
          "type": "uint256"
        }
      ],
      "name": "getApproved",
      "outputs": [
        {
          "internalType": "address",
          "name": "",
          "type": "address"
        }
      ],
      "stateMutability": "view",
      "type": "function"
    },
    {
      "inputs": [
        {
          "internalType": "address",
          "name": "owner",
          "type": "address"
        },
        {
          "internalType": "address",
          "name": "operator",
          "type": "address"
        }
      ],
      "name": "isApprovedForAll",
      "outputs": [
        {
          "internalType": "bool",
          "name": "",
          "type": "bool"
        }
      ],
      "stateMutability": "view",
      "type": "function"
    },
    {
      "inputs": [],
      "name": "name",
      "outputs": [
        {
          "internalType": "string",
          "name": "",
          "type": "string"
        }
      ],
      "stateMutability": "view",
      "type": "function"
    },
    {
      "inputs": [],
      "name": "owner",
      "outputs": [
        {
          "internalType": "address",
          "name": "",
          "type": "address"
        }
      ],
      "stateMutability": "view",
      "type": "function"
    },
    {
      "inputs": [
        {
          "internalType": "uint256",
          "name": "tokenId",
          "type": "uint256"
        }
      ],
      "name": "ownerOf",
      "outputs": [
        {
          "internalType": "address",
          "name": "",
          "type": "address"
        }
      ],
      "stateMutability": "view",
      "type": "function"
    },
    {
      "inputs": [],
      "name": "renounceOwnership",
      "outputs": [],
      "stateMutability": "nonpayable",
      "type": "function"
    },
    {
      "inputs": [
        {
          "internalType": "address",
          "name": "from",
          "type": "address"
        },
        {
          "internalType": "address",
          "name": "to",
          "type": "address"
        },
        {
          "internalType": "uint256",
          "name": "tokenId",
          "type": "uint256"
        }
      ],
      "name": "safeTransferFrom",
      "outputs": [],
      "stateMutability": "nonpayable",
      "type": "function"
    },
    {
      "inputs": [
        {
          "internalType": "address",
          "name": "from",
          "type": "address"
        },
        {
          "internalType": "address",
          "name": "to",
          "type": "address"
        },
        {
          "internalType": "uint256",
          "name": "tokenId",
          "type": "uint256"
        },
        {
          "internalType": "bytes",
          "name": "data",
          "type": "bytes"
        }
      ],
      "name": "safeTransferFrom",
      "outputs": [],
      "stateMutability": "nonpayable",
      "type": "function"
    },
    {
      "inputs": [
        {
          "internalType": "address",
          "name": "operator",
          "type": "address"
        },
        {
          "internalType": "bool",
          "name": "approved",
          "type": "bool"
        }
      ],
      "name": "setApprovalForAll",
      "outputs": [],
      "stateMutability": "nonpayable",
      "type": "function"
    },
    {
      "inputs": [
        {
          "internalType": "uint256",
          "name": "",
          "type": "uint256"
        }
      ],
      "name": "songs",
      "outputs": [
        {
          "internalType": "string",
          "name": "title",
          "type": "string"
        },
        {
          "internalType": "address",
          "name": "artist",
          "type": "address"
        },
        {
          "internalType": "uint256",
          "name": "price",
          "type": "uint256"
        },
        {
          "internalType": "string",
          "name": "uri",
          "type": "string"
        }
      ],
      "stateMutability": "view",
      "type": "function"
    },
    {
      "inputs": [
        {
          "internalType": "uint256",
          "name": "tokenId",
          "type": "uint256"
        }
      ],
      "name": "streamSong",
      "outputs": [],
      "stateMutability": "payable",
      "type": "function"
    },
    {
      "inputs": [
        {
          "internalType": "bytes4",
          "name": "interfaceId",
          "type": "bytes4"
        }
      ],
      "name": "supportsInterface",
      "outputs": [
        {
          "internalType": "bool",
          "name": "",
          "type": "bool"
        }
      ],
      "stateMutability": "view",
      "type": "function"
    },
    {
      "inputs": [],
      "name": "symbol",
      "outputs": [
        {
          "internalType": "string",
          "name": "",
          "type": "string"
        }
      ],
      "stateMutability": "view",
      "type": "function"
    },
    {
      "inputs": [
        {
          "internalType": "uint256",
          "name": "tokenId",
          "type": "uint256"
        }
      ],
      "name": "tokenURI",
      "outputs": [
        {
          "internalType": "string",
          "name": "",
          "type": "string"
        }
      ],
      "stateMutability": "view",
      "type": "function"
    },
    {
      "inputs": [
        {
          "internalType": "address",
          "name": "from",
          "type": "address"
        },
        {
          "internalType": "address",
          "name": "to",
          "type": "address"
        },
        {
          "internalType": "uint256",
          "name": "tokenId",
          "type": "uint256"
        }
      ],
      "name": "transferFrom",
      "outputs": [],
      "stateMutability": "nonpayable",
      "type": "function"
    },
    {
      "inputs": [
        {
          "internalType": "address",
          "name": "newOwner",
          "type": "address"
        }
      ],
      "name": "transferOwnership",
      "outputs": [],
      "stateMutability": "nonpayable",
      "type": "function"
    },
    {
      "inputs": [
        {
          "internalType": "string",
          "name": "title",
          "type": "string"
        },
        {
          "internalType": "uint256",
          "name": "price",
          "type": "uint256"
        },
        {
          "internalType": "string",
          "name": "uri",
          "type": "string"
        }
      ],
      "name": "uploadSong",
      "outputs": [
        {
          "internalType": "uint256",
          "name": "",
          "type": "uint256"
        }
      ],
      "stateMutability": "nonpayable",
      "type": "function"
    },
    {
      "inputs": [],
      "name": "withdrawBalance",
      "outputs": [],
      "stateMutability": "nonpayable",
      "type": "function"
    }
  ],
  "bytecode": "0x60806040523480156200001157600080fd5b50336040518060400160405280600681526020017f444d7573696300000000000000000000000000000000000000000000000000008152506040518060400160405280600681526020017f444d555349430000000000000000000000000000000000000000000000000000815250816000908162000090919062000472565b508060019081620000a2919062000472565b505050600073ffffffffffffffffffffffffffffffffffffffff168173ffffffffffffffffffffffffffffffffffffffff16036200011a5760006040517f1e4fbdf70000000000000000000000000000000000000000000000000000000081526004016200011191906200059e565b60405180910390fd5b6200012b816200013260201b60201c565b50620005bb565b6000600660009054906101000a900473ffffffffffffffffffffffffffffffffffffffff16905081600660006101000a81548173ffffffffffffffffffffffffffffffffffffffff021916908373ffffffffffffffffffffffffffffffffffffffff1602179055508173ffffffffffffffffffffffffffffffffffffffff168173ffffffffffffffffffffffffffffffffffffffff167f8be0079c531659141344cd1fd0a4f28419497f9722a3daafe3b4186f6b6457e060405160405180910390a35050565b600081519050919050565b7f4e487b7100000000000000000000000000000000000000000000000000000000600052604160045260246000fd5b7f4e487b7100000000000000000000000000000000000000000000000000000000600052602260045260246000fd5b600060028204905060018216806200027a57607f821691505b60208210810362000290576200028f62000232565b5b50919050565b60008190508160005260206000209050919050565b60006020601f8301049050919050565b600082821b905092915050565b600060088302620002fa7fffffffffffffffffffffffffffffffffffffffffffffffffffffffffffffffff82620002bb565b620003068683620002bb565b95508019841693508086168417925050509392505050565b6000819050919050565b6000819050919050565b6000620003536200034d62000347846200031e565b62000328565b6200031e565b9050919050565b6000819050919050565b6200036f8362000332565b620003876200037e826200035a565b848454620002c8565b825550505050565b600090565b6200039e6200038f565b620003ab81848462000364565b505050565b5b81811015620003d357620003c760008262000394565b600181019050620003b1565b5050565b601f8211156200042257620003ec8162000296565b620003f784620002ab565b8101602085101562000407578190505b6200041f6200041685620002ab565b830182620003b0565b50505b505050565b600082821c905092915050565b6000620004476000198460080262000427565b1980831691505092915050565b600062000462838362000434565b9150826002028217905092915050565b6200047d82620001f8565b67ffffffffffffffff81111562000499576200049862000203565b5b620004a5825462000261565b620004b2828285620003d7565b600060209050601f831160018114620004ea5760008415620004d5578287015190505b620004e1858262000454565b86555062000551565b601f198416620004fa8662000296565b60005b828110156200052457848901518255600182019150602085019450602081019050620004fd565b8683101562000544578489015162000540601f89168262000434565b8355505b6001600288020188555050505b505050505050565b600073ffffffffffffffffffffffffffffffffffffffff82169050919050565b6000620005868262000559565b9050919050565b620005988162000579565b82525050565b6000602082019050620005b560008301846200058d565b92915050565b612e6d80620005cb6000396000f3fe60806040526004361061012a5760003560e01c80636352211e116100ab57806395d89b411161006f57806395d89b41146103f8578063a22cb46514610423578063b88d4fde1461044c578063c87b56dd14610475578063e985e9c5146104b2578063f2fde38b146104ef5761012a565b80636352211e146102ff57806370a082311461033c578063715018a6146103795780637670b8a2146103905780638da5cb5b146103cd5761012a565b8063095ea7b3116100f2578063095ea7b31461022d57806323b872dd14610256578063304cff301461027f57806342842e0e146102bf5780635fd8c710146102e85761012a565b806301ffc9a71461012f57806304401b1e1461016c57806305b40e19146101a957806306fdde03146101c5578063081812fc146101f0575b600080fd5b34801561013b57600080fd5b5061015660048036038101906101519190612080565b610518565b60405161016391906120c8565b60405180910390f35b34801561017857600080fd5b50610193600480360381019061018e919061225f565b6105fa565b6040516101a091906122f9565b60405180910390f35b6101c360048036038101906101be9190612314565b610732565b005b3480156101d157600080fd5b506101da6109be565b6040516101e791906123c0565b60405180910390f35b3480156101fc57600080fd5b5061021760048036038101906102129190612314565b610a50565b6040516102249190612423565b60405180910390f35b34801561023957600080fd5b50610254600480360381019061024f919061246a565b610a6c565b005b34801561026257600080fd5b5061027d600480360381019061027891906124aa565b610a82565b005b34801561028b57600080fd5b506102a660048036038101906102a19190612314565b610b84565b6040516102b694939291906124fd565b60405180910390f35b3480156102cb57600080fd5b506102e660048036038101906102e191906124aa565b610ce4565b005b3480156102f457600080fd5b506102fd610d04565b005b34801561030b57600080fd5b5061032660048036038101906103219190612314565b610e1a565b6040516103339190612423565b60405180910390f35b34801561034857600080fd5b50610363600480360381019061035e9190612550565b610e2c565b60405161037091906122f9565b60405180910390f35b34801561038557600080fd5b5061038e610ee6565b005b34801561039c57600080fd5b506103b760048036038101906103b29190612550565b610efa565b6040516103c491906122f9565b60405180910390f35b3480156103d957600080fd5b506103e2610f12565b6040516103ef9190612423565b60405180910390f35b34801561040457600080fd5b5061040d610f3c565b60405161041a91906123c0565b60405180910390f35b34801561042f57600080fd5b5061044a600480360381019061044591906125a9565b610fce565b005b34801561045857600080fd5b50610473600480360381019061046e919061268a565b610fe4565b005b34801561048157600080fd5b5061049c60048036038101906104979190612314565b611009565b6040516104a991906123c0565b60405180910390f35b3480156104be57600080fd5b506104d960048036038101906104d4919061270d565b611072565b6040516104e691906120c8565b60405180910390f35b3480156104fb57600080fd5b5061051660048036038101906105119190612550565b611106565b005b60007f80ac58cd000000000000000000000000000000000000000000000000000000007bffffffffffffffffffffffffffffffffffffffffffffffffffffffff1916827bffffffffffffffffffffffffffffffffffffffffffffffffffffffff191614806105e357507f5b5e139f000000000000000000000000000000000000000000000000000000007bffffffffffffffffffffffffffffffffffffffffffffffffffffffff1916827bffffffffffffffffffffffffffffffffffffffffffffffffffffffff1916145b806105f357506105f28261118c565b5b9050919050565b600080600760008154809291906106109061277c565b91905055905061062033826111f6565b60405180608001604052808681526020013373ffffffffffffffffffffffffffffffffffffffff1681526020018581526020018481525060086000838152602001908152602001600020600082015181600001908161067f91906129d0565b5060208201518160010160006101000a81548173ffffffffffffffffffffffffffffffffffffffff021916908373ffffffffffffffffffffffffffffffffffffffff1602179055506040820151816002015560608201518160030190816106e691906129d0565b509050507fd388d35870163189af858e2eeb9c5020dfdf007596983d52c30c7733abdbced68186338760405161071f9493929190612aa2565b60405180910390a1809150509392505050565b600060086000838152602001908152602001600020604051806080016040529081600082018054610762906127f3565b80601f016020809104026020016040519081016040528092919081815260200182805461078e906127f3565b80156107db5780601f106107b0576101008083540402835291602001916107db565b820191906000526020600020905b8154815290600101906020018083116107be57829003601f168201915b505050505081526020016001820160009054906101000a900473ffffffffffffffffffffffffffffffffffffffff1673ffffffffffffffffffffffffffffffffffffffff1673ffffffffffffffffffffffffffffffffffffffff16815260200160028201548152602001600382018054610854906127f3565b80601f0160208091040260200160405190810160405280929190818152602001828054610880906127f3565b80156108cd5780601f106108a2576101008083540402835291602001916108cd565b820191906000526020600020905b8154815290600101906020018083116108b057829003601f168201915b5050505050815250509050806040015134101561091f576040517f08c379a000000000000000000000000000000000000000000000000000000000815260040161091690612b60565b60405180910390fd5b3460096000836020015173ffffffffffffffffffffffffffffffffffffffff1673ffffffffffffffffffffffffffffffffffffffff16815260200190815260200160002060008282546109729190612b80565b925050819055507fcfd0d936289fc9eb396b879278c710b6a57c1310342597d998dac95e761448af82338360200151346040516109b29493929190612bb4565b60405180910390a15050565b6060600080546109cd906127f3565b80601f01602080910402602001604051908101604052809291908181526020018280546109f9906127f3565b8015610a465780601f10610a1b57610100808354040283529160200191610a46565b820191906000526020600020905b815481529060010190602001808311610a2957829003601f168201915b5050505050905090565b6000610a5b826112ef565b50610a6582611377565b9050919050565b610a7e8282610a796113b4565b6113bc565b5050565b600073ffffffffffffffffffffffffffffffffffffffff168273ffffffffffffffffffffffffffffffffffffffff1603610af45760006040517f64a0ae92000000000000000000000000000000000000000000000000000000008152600401610aeb9190612423565b60405180910390fd5b6000610b088383610b036113b4565b6113ce565b90508373ffffffffffffffffffffffffffffffffffffffff168173ffffffffffffffffffffffffffffffffffffffff1614610b7e578382826040517f64283d7b000000000000000000000000000000000000000000000000000000008152600401610b7593929190612bf9565b60405180910390fd5b50505050565b6008602052806000526040600020600091509050806000018054610ba7906127f3565b80601f0160208091040260200160405190810160405280929190818152602001828054610bd3906127f3565b8015610c205780601f10610bf557610100808354040283529160200191610c20565b820191906000526020600020905b815481529060010190602001808311610c0357829003601f168201915b5050505050908060010160009054906101000a900473ffffffffffffffffffffffffffffffffffffffff1690806002015490806003018054610c61906127f3565b80601f0160208091040260200160405190810160405280929190818152602001828054610c8d906127f3565b8015610cda5780601f10610caf57610100808354040283529160200191610cda565b820191906000526020600020905b815481529060010190602001808311610cbd57829003601f168201915b5050505050905084565b610cff83838360405180602001604052806000815250610fe4565b505050565b6000600960003373ffffffffffffffffffffffffffffffffffffffff1673ffffffffffffffffffffffffffffffffffffffff16815260200190815260200160002054905060008111610d8b576040517f08c379a0000000000000000000000000000000000000000000000000000000008152600401610d8290612c7c565b60405180910390fd5b6000600960003373ffffffffffffffffffffffffffffffffffffffff1673ffffffffffffffffffffffffffffffffffffffff168152602001908152602001600020819055503373ffffffffffffffffffffffffffffffffffffffff166108fc829081150290604051600060405180830381858888f19350505050158015610e16573d6000803e3d6000fd5b5050565b6000610e25826112ef565b9050919050565b60008073ffffffffffffffffffffffffffffffffffffffff168273ffffffffffffffffffffffffffffffffffffffff1603610e9f5760006040517f89c62b64000000000000000000000000000000000000000000000000000000008152600401610e969190612423565b60405180910390fd5b600360008373ffffffffffffffffffffffffffffffffffffffff1673ffffffffffffffffffffffffffffffffffffffff168152602001908152602001600020549050919050565b610eee6115e8565b610ef8600061166f565b565b60096020528060005260406000206000915090505481565b6000600660009054906101000a900473ffffffffffffffffffffffffffffffffffffffff16905090565b606060018054610f4b906127f3565b80601f0160208091040260200160405190810160405280929190818152602001828054610f77906127f3565b8015610fc45780601f10610f9957610100808354040283529160200191610fc4565b820191906000526020600020905b815481529060010190602001808311610fa757829003601f168201915b5050505050905090565b610fe0610fd96113b4565b8383611735565b5050565b610fef848484610a82565b611003610ffa6113b4565b858585856118a4565b50505050565b6060611014826112ef565b50600061101f611a55565b9050600081511161103f576040518060200160405280600081525061106a565b8061104984611a6c565b60405160200161105a929190612cd8565b6040516020818303038152906040525b915050919050565b6000600560008473ffffffffffffffffffffffffffffffffffffffff1673ffffffffffffffffffffffffffffffffffffffff16815260200190815260200160002060008373ffffffffffffffffffffffffffffffffffffffff1673ffffffffffffffffffffffffffffffffffffffff16815260200190815260200160002060009054906101000a900460ff16905092915050565b61110e6115e8565b600073ffffffffffffffffffffffffffffffffffffffff168173ffffffffffffffffffffffffffffffffffffffff16036111805760006040517f1e4fbdf70000000000000000000000000000000000000000000000000000000081526004016111779190612423565b60405180910390fd5b6111898161166f565b50565b60007f01ffc9a7000000000000000000000000000000000000000000000000000000007bffffffffffffffffffffffffffffffffffffffffffffffffffffffff1916827bffffffffffffffffffffffffffffffffffffffffffffffffffffffff1916149050919050565b600073ffffffffffffffffffffffffffffffffffffffff168273ffffffffffffffffffffffffffffffffffffffff16036112685760006040517f64a0ae9200000000000000000000000000000000000000000000000000000000815260040161125f9190612423565b60405180910390fd5b6000611276838360006113ce565b9050600073ffffffffffffffffffffffffffffffffffffffff168173ffffffffffffffffffffffffffffffffffffffff16146112ea5760006040517f73c6ac6e0000000000000000000000000000000000000000000000000000000081526004016112e19190612423565b60405180910390fd5b505050565b6000806112fb83611b3a565b9050600073ffffffffffffffffffffffffffffffffffffffff168173ffffffffffffffffffffffffffffffffffffffff160361136e57826040517f7e27328900000000000000000000000000000000000000000000000000000000815260040161136591906122f9565b60405180910390fd5b80915050919050565b60006004600083815260200190815260200160002060009054906101000a900473ffffffffffffffffffffffffffffffffffffffff169050919050565b600033905090565b6113c98383836001611b77565b505050565b6000806113da84611b3a565b9050600073ffffffffffffffffffffffffffffffffffffffff168373ffffffffffffffffffffffffffffffffffffffff161461141c5761141b818486611d3c565b5b600073ffffffffffffffffffffffffffffffffffffffff168173ffffffffffffffffffffffffffffffffffffffff16146114ad5761145e600085600080611b77565b6001600360008373ffffffffffffffffffffffffffffffffffffffff1673ffffffffffffffffffffffffffffffffffffffff168152602001908152602001600020600082825403925050819055505b600073ffffffffffffffffffffffffffffffffffffffff168573ffffffffffffffffffffffffffffffffffffffff1614611530576001600360008773ffffffffffffffffffffffffffffffffffffffff1673ffffffffffffffffffffffffffffffffffffffff168152602001908152602001600020600082825401925050819055505b846002600086815260200190815260200160002060006101000a81548173ffffffffffffffffffffffffffffffffffffffff021916908373ffffffffffffffffffffffffffffffffffffffff160217905550838573ffffffffffffffffffffffffffffffffffffffff168273ffffffffffffffffffffffffffffffffffffffff167fddf252ad1be2c89b69c2b068fc378daa952ba7f163c4a11628f55a4df523b3ef60405160405180910390a4809150509392505050565b6115f06113b4565b73ffffffffffffffffffffffffffffffffffffffff1661160e610f12565b73ffffffffffffffffffffffffffffffffffffffff161461166d576116316113b4565b6040517f118cdaa70000000000000000000000000000000000000000000000000000000081526004016116649190612423565b60405180910390fd5b565b6000600660009054906101000a900473ffffffffffffffffffffffffffffffffffffffff16905081600660006101000a81548173ffffffffffffffffffffffffffffffffffffffff021916908373ffffffffffffffffffffffffffffffffffffffff1602179055508173ffffffffffffffffffffffffffffffffffffffff168173ffffffffffffffffffffffffffffffffffffffff167f8be0079c531659141344cd1fd0a4f28419497f9722a3daafe3b4186f6b6457e060405160405180910390a35050565b600073ffffffffffffffffffffffffffffffffffffffff168273ffffffffffffffffffffffffffffffffffffffff16036117a657816040517f5b08ba1800000000000000000000000000000000000000000000000000000000815260040161179d9190612423565b60405180910390fd5b80600560008573ffffffffffffffffffffffffffffffffffffffff1673ffffffffffffffffffffffffffffffffffffffff16815260200190815260200160002060008473ffffffffffffffffffffffffffffffffffffffff1673ffffffffffffffffffffffffffffffffffffffff16815260200190815260200160002060006101000a81548160ff0219169083151502179055508173ffffffffffffffffffffffffffffffffffffffff168373ffffffffffffffffffffffffffffffffffffffff167f17307eab39ab6107e8899845ad3d59bd9653f200f220920489ca2b5937696c318360405161189791906120c8565b60405180910390a3505050565b60008373ffffffffffffffffffffffffffffffffffffffff163b1115611a4e578273ffffffffffffffffffffffffffffffffffffffff1663150b7a02868685856040518563ffffffff1660e01b81526004016119039493929190612d51565b6020604051808303816000875af192505050801561193f57506040513d601f19601f8201168201806040525081019061193c9190612db2565b60015b6119c3573d806000811461196f576040519150601f19603f3d011682016040523d82523d6000602084013e611974565b606091505b5060008151036119bb57836040517f64a0ae920000000000000000000000000000000000000000000000000000000081526004016119b29190612423565b60405180910390fd5b805181602001fd5b63150b7a0260e01b7bffffffffffffffffffffffffffffffffffffffffffffffffffffffff1916817bffffffffffffffffffffffffffffffffffffffffffffffffffffffff191614611a4c57836040517f64a0ae92000000000000000000000000000000000000000000000000000000008152600401611a439190612423565b60405180910390fd5b505b5050505050565b606060405180602001604052806000815250905090565b606060006001611a7b84611e00565b01905060008167ffffffffffffffff811115611a9a57611a996120fe565b5b6040519080825280601f01601f191660200182016040528015611acc5781602001600182028036833780820191505090505b509050600082602001820190505b600115611b2f578080600190039150507f3031323334353637383961626364656600000000000000000000000000000000600a86061a8153600a8581611b2357611b22612ddf565b5b04945060008503611ada575b819350505050919050565b60006002600083815260200190815260200160002060009054906101000a900473ffffffffffffffffffffffffffffffffffffffff169050919050565b8080611bb05750600073ffffffffffffffffffffffffffffffffffffffff168273ffffffffffffffffffffffffffffffffffffffff1614155b15611ce4576000611bc0846112ef565b9050600073ffffffffffffffffffffffffffffffffffffffff168373ffffffffffffffffffffffffffffffffffffffff1614158015611c2b57508273ffffffffffffffffffffffffffffffffffffffff168173ffffffffffffffffffffffffffffffffffffffff1614155b8015611c3e5750611c3c8184611072565b155b15611c8057826040517fa9fbf51f000000000000000000000000000000000000000000000000000000008152600401611c779190612423565b60405180910390fd5b8115611ce257838573ffffffffffffffffffffffffffffffffffffffff168273ffffffffffffffffffffffffffffffffffffffff167f8c5be1e5ebec7d5bd14f71427d1e84f3dd0314c0f7b2291e5b200ac8c7c3b92560405160405180910390a45b505b836004600085815260200190815260200160002060006101000a81548173ffffffffffffffffffffffffffffffffffffffff021916908373ffffffffffffffffffffffffffffffffffffffff16021790555050505050565b611d47838383611f53565b611dfb57600073ffffffffffffffffffffffffffffffffffffffff168373ffffffffffffffffffffffffffffffffffffffff1603611dbc57806040517f7e273289000000000000000000000000000000000000000000000000000000008152600401611db391906122f9565b60405180910390fd5b81816040517f177e802f000000000000000000000000000000000000000000000000000000008152600401611df2929190612e0e565b60405180910390fd5b505050565b600080600090507a184f03e93ff9f4daa797ed6e38ed64bf6a1f0100000000000000008310611e5e577a184f03e93ff9f4daa797ed6e38ed64bf6a1f0100000000000000008381611e5457611e53612ddf565b5b0492506040810190505b6d04ee2d6d415b85acef81000000008310611e9b576d04ee2d6d415b85acef81000000008381611e9157611e90612ddf565b5b0492506020810190505b662386f26fc100008310611eca57662386f26fc100008381611ec057611ebf612ddf565b5b0492506010810190505b6305f5e1008310611ef3576305f5e1008381611ee957611ee8612ddf565b5b0492506008810190505b6127108310611f18576127108381611f0e57611f0d612ddf565b5b0492506004810190505b60648310611f3b5760648381611f3157611f30612ddf565b5b0492506002810190505b600a8310611f4a576001810190505b80915050919050565b60008073ffffffffffffffffffffffffffffffffffffffff168373ffffffffffffffffffffffffffffffffffffffff161415801561200b57508273ffffffffffffffffffffffffffffffffffffffff168473ffffffffffffffffffffffffffffffffffffffff161480611fcc5750611fcb8484611072565b5b8061200a57508273ffffffffffffffffffffffffffffffffffffffff16611ff283611377565b73ffffffffffffffffffffffffffffffffffffffff16145b5b90509392505050565b6000604051905090565b600080fd5b600080fd5b60007fffffffff0000000000000000000000000000000000000000000000000000000082169050919050565b61205d81612028565b811461206857600080fd5b50565b60008135905061207a81612054565b92915050565b6000602082840312156120965761209561201e565b5b60006120a48482850161206b565b91505092915050565b60008115159050919050565b6120c2816120ad565b82525050565b60006020820190506120dd60008301846120b9565b92915050565b600080fd5b600080fd5b6000601f19601f8301169050919050565b7f4e487b7100000000000000000000000000000000000000000000000000000000600052604160045260246000fd5b612136826120ed565b810181811067ffffffffffffffff82111715612155576121546120fe565b5b80604052505050565b6000612168612014565b9050612174828261212d565b919050565b600067ffffffffffffffff821115612194576121936120fe565b5b61219d826120ed565b9050602081019050919050565b82818337600083830152505050565b60006121cc6121c784612179565b61215e565b9050828152602081018484840111156121e8576121e76120e8565b5b6121f38482856121aa565b509392505050565b600082601f8301126122105761220f6120e3565b5b81356122208482602086016121b9565b91505092915050565b6000819050919050565b61223c81612229565b811461224757600080fd5b50565b60008135905061225981612233565b92915050565b6000806000606084860312156122785761227761201e565b5b600084013567ffffffffffffffff81111561229657612295612023565b5b6122a2868287016121fb565b93505060206122b38682870161224a565b925050604084013567ffffffffffffffff8111156122d4576122d3612023565b5b6122e0868287016121fb565b9150509250925092565b6122f381612229565b82525050565b600060208201905061230e60008301846122ea565b92915050565b60006020828403121561232a5761232961201e565b5b60006123388482850161224a565b91505092915050565b600081519050919050565b600082825260208201905092915050565b60005b8381101561237b578082015181840152602081019050612360565b60008484015250505050565b600061239282612341565b61239c818561234c565b93506123ac81856020860161235d565b6123b5816120ed565b840191505092915050565b600060208201905081810360008301526123da8184612387565b905092915050565b600073ffffffffffffffffffffffffffffffffffffffff82169050919050565b600061240d826123e2565b9050919050565b61241d81612402565b82525050565b60006020820190506124386000830184612414565b92915050565b61244781612402565b811461245257600080fd5b50565b6000813590506124648161243e565b92915050565b600080604083850312156124815761248061201e565b5b600061248f85828601612455565b92505060206124a08582860161224a565b9150509250929050565b6000806000606084860312156124c3576124c261201e565b5b60006124d186828701612455565b93505060206124e286828701612455565b92505060406124f38682870161224a565b9150509250925092565b600060808201905081810360008301526125178187612387565b90506125266020830186612414565b61253360408301856122ea565b81810360608301526125458184612387565b905095945050505050565b6000602082840312156125665761256561201e565b5b600061257484828501612455565b91505092915050565b612586816120ad565b811461259157600080fd5b50565b6000813590506125a38161257d565b92915050565b600080604083850312156125c0576125bf61201e565b5b60006125ce85828601612455565b92505060206125df85828601612594565b9150509250929050565b600067ffffffffffffffff821115612604576126036120fe565b5b61260d826120ed565b9050602081019050919050565b600061262d612628846125e9565b61215e565b905082815260208101848484011115612649576126486120e8565b5b6126548482856121aa565b509392505050565b600082601f830112612671576126706120e3565b5b813561268184826020860161261a565b91505092915050565b600080600080608085870312156126a4576126a361201e565b5b60006126b287828801612455565b94505060206126c387828801612455565b93505060406126d48782880161224a565b925050606085013567ffffffffffffffff8111156126f5576126f4612023565b5b6127018782880161265c565b91505092959194509250565b600080604083850312156127245761272361201e565b5b600061273285828601612455565b925050602061274385828601612455565b9150509250929050565b7f4e487b7100000000000000000000000000000000000000000000000000000000600052601160045260246000fd5b600061278782612229565b91507fffffffffffffffffffffffffffffffffffffffffffffffffffffffffffffffff82036127b9576127b861274d565b5b600182019050919050565b7f4e487b7100000000000000000000000000000000000000000000000000000000600052602260045260246000fd5b6000600282049050600182168061280b57607f821691505b60208210810361281e5761281d6127c4565b5b50919050565b60008190508160005260206000209050919050565b60006020601f8301049050919050565b600082821b905092915050565b6000600883026128867fffffffffffffffffffffffffffffffffffffffffffffffffffffffffffffffff82612849565b6128908683612849565b95508019841693508086168417925050509392505050565b6000819050919050565b60006128cd6128c86128c384612229565b6128a8565b612229565b9050919050565b6000819050919050565b6128e7836128b2565b6128fb6128f3826128d4565b848454612856565b825550505050565b600090565b612910612903565b61291b8184846128de565b505050565b5b8181101561293f57612934600082612908565b600181019050612921565b5050565b601f8211156129845761295581612824565b61295e84612839565b8101602085101561296d578190505b61298161297985612839565b830182612920565b50505b505050565b600082821c905092915050565b60006129a760001984600802612989565b1980831691505092915050565b60006129c08383612996565b9150826002028217905092915050565b6129d982612341565b67ffffffffffffffff8111156129f2576129f16120fe565b5b6129fc82546127f3565b612a07828285612943565b600060209050601f831160018114612a3a5760008415612a28578287015190505b612a3285826129b4565b865550612a9a565b601f198416612a4886612824565b60005b82811015612a7057848901518255600182019150602085019450602081019050612a4b565b86831015612a8d5784890151612a89601f891682612996565b8355505b6001600288020188555050505b505050505050565b6000608082019050612ab760008301876122ea565b8181036020830152612ac98186612387565b9050612ad86040830185612414565b612ae560608301846122ea565b95945050505050565b7f496e73756666696369656e74207061796d656e7420666f722073747265616d6960008201527f6e67000000000000000000000000000000000000000000000000000000000000602082015250565b6000612b4a60228361234c565b9150612b5582612aee565b604082019050919050565b60006020820190508181036000830152612b7981612b3d565b9050919050565b6000612b8b82612229565b9150612b9683612229565b9250828201905080821115612bae57612bad61274d565b5b92915050565b6000608082019050612bc960008301876122ea565b612bd66020830186612414565b612be36040830185612414565b612bf060608301846122ea565b95945050505050565b6000606082019050612c0e6000830186612414565b612c1b60208301856122ea565b612c286040830184612414565b949350505050565b7f4e6f2062616c616e636520746f20776974686472617700000000000000000000600082015250565b6000612c6660168361234c565b9150612c7182612c30565b602082019050919050565b60006020820190508181036000830152612c9581612c59565b9050919050565b600081905092915050565b6000612cb282612341565b612cbc8185612c9c565b9350612ccc81856020860161235d565b80840191505092915050565b6000612ce48285612ca7565b9150612cf08284612ca7565b91508190509392505050565b600081519050919050565b600082825260208201905092915050565b6000612d2382612cfc565b612d2d8185612d07565b9350612d3d81856020860161235d565b612d46816120ed565b840191505092915050565b6000608082019050612d666000830187612414565b612d736020830186612414565b612d8060408301856122ea565b8181036060830152612d928184612d18565b905095945050505050565b600081519050612dac81612054565b92915050565b600060208284031215612dc857612dc761201e565b5b6000612dd684828501612d9d565b91505092915050565b7f4e487b7100000000000000000000000000000000000000000000000000000000600052601260045260246000fd5b6000604082019050612e236000830185612414565b612e3060208301846122ea565b939250505056fea2646970667358221220215c0a267f95233e9174e900dd2b0d0581cb73a38662779d9a484336921f312064736f6c63430008140033",
  "linkReferences": {},
  "deployedLinkReferences": {}
}